{
  "contractName": "Airlines",
  "abi": [
    {
      "constant": true,
      "inputs": [
        {
          "name": "",
          "type": "address"
        }
      ],
      "name": "airlinesInfo",
      "outputs": [
        {
          "name": "_id",
          "type": "uint256"
        },
        {
          "name": "_balance",
          "type": "uint256"
        }
      ],
      "payable": false,
      "stateMutability": "view",
      "type": "function",
      "signature": "0x5e9b177c"
    },
    {
      "inputs": [
        {
          "name": "initialSupply",
          "type": "uint256"
        }
      ],
      "payable": false,
      "stateMutability": "nonpayable",
      "type": "constructor",
      "signature": "constructor"
    },
    {
      "payable": true,
      "stateMutability": "payable",
      "type": "fallback"
    },
    {
      "anonymous": false,
      "inputs": [
        {
          "indexed": true,
          "name": "buyer",
          "type": "address"
        },
        {
          "indexed": false,
          "name": "amount",
          "type": "uint256"
        }
      ],
      "name": "paid",
      "type": "event",
      "signature": "0x8c7266189e70b5cd087ce48a7584fc21aa294c0757e6acaacf897ea450641b90"
    },
    {
      "anonymous": false,
      "inputs": [
        {
          "indexed": true,
          "name": "airline",
          "type": "address"
        },
        {
          "indexed": false,
          "name": "seatNumber",
          "type": "uint256"
        }
      ],
      "name": "available",
      "type": "event",
      "signature": "0xf8724aba647d256391b6accd98c06186473815a314d266ce15ca054ec16bcc09"
    },
    {
      "anonymous": false,
      "inputs": [
        {
          "indexed": true,
          "name": "airline",
          "type": "address"
        },
        {
          "indexed": false,
          "name": "changeTo",
          "type": "address"
        },
        {
          "indexed": false,
          "name": "seatNumber",
          "type": "uint256"
        }
      ],
      "name": "requestChange",
      "type": "event",
      "signature": "0x31c1abba69c05c24c082227087622de504a4cf4cb0be3e96e8da923314a8e741"
    },
    {
      "anonymous": false,
      "inputs": [
        {
          "indexed": false,
          "name": "from",
          "type": "address"
        },
        {
          "indexed": false,
          "name": "to",
          "type": "address"
        },
        {
          "indexed": false,
          "name": "amount",
          "type": "uint256"
        }
      ],
      "name": "Sent",
      "type": "event",
      "signature": "0x3990db2d31862302a685e8086b5755072a6e2b5b780af1ee81ece35ee3cd3345"
    },
    {
      "constant": false,
      "inputs": [],
      "name": "register",
      "outputs": [],
      "payable": true,
      "stateMutability": "payable",
      "type": "function",
      "signature": "0x1aa3a008"
    },
    {
      "constant": false,
      "inputs": [
        {
          "name": "toAirline",
          "type": "address"
        },
        {
          "name": "seat",
          "type": "uint256"
        }
      ],
      "name": "request",
      "outputs": [],
      "payable": false,
      "stateMutability": "nonpayable",
      "type": "function",
      "signature": "0xc8c01a55"
    },
    {
      "constant": false,
      "inputs": [
        {
          "name": "fromAirline",
          "type": "address"
        },
        {
          "name": "seat",
          "type": "uint256"
        },
        {
          "name": "done",
          "type": "bool"
        }
      ],
      "name": "response",
      "outputs": [
        {
          "name": "success",
          "type": "bool"
        }
      ],
      "payable": true,
      "stateMutability": "payable",
      "type": "function",
      "signature": "0xa6d6eacb"
    },
    {
      "constant": false,
      "inputs": [
        {
          "name": "toAirline",
          "type": "address"
        }
      ],
      "name": "payToAirline",
      "outputs": [],
      "payable": true,
      "stateMutability": "payable",
      "type": "function",
      "signature": "0xd27be961"
    },
    {
      "constant": false,
      "inputs": [
        {
          "name": "Airline",
          "type": "address"
        }
      ],
      "name": "unregister",
      "outputs": [],
      "payable": true,
      "stateMutability": "payable",
      "type": "function",
      "signature": "0x2ec2c246"
    },
    {
      "constant": true,
      "inputs": [
        {
          "name": "Airline",
          "type": "address"
        }
      ],
      "name": "BalanceDetails",
      "outputs": [
        {
          "name": "airlineBalance",
          "type": "uint256"
        },
        {
          "name": "escrowBalance",
          "type": "uint256"
        },
        {
          "name": "walletBalance",
          "type": "uint256"
        }
      ],
      "payable": false,
      "stateMutability": "view",
      "type": "function",
      "signature": "0xd79788f2"
    }
  ],
  "bytecode": "0x608060405234801561001057600080fd5b50604051602080610d778339810180604052602081101561003057600080fd5b8101908080519060200190929190505050336000806101000a81548173ffffffffffffffffffffffffffffffffffffffff021916908373ffffffffffffffffffffffffffffffffffffffff16021790555080600160008060009054906101000a900473ffffffffffffffffffffffffffffffffffffffff1673ffffffffffffffffffffffffffffffffffffffff1673ffffffffffffffffffffffffffffffffffffffff1681526020019081526020016000208190555050610c81806100f66000396000f3fe608060405260043610610083576000357c0100000000000000000000000000000000000000000000000000000000900463ffffffff1680631aa3a008146100cc5780632ec2c246146100d65780635e9b177c1461011a578063a6d6eacb14610186578063c8c01a55146101f8578063d27be96114610253578063d79788f214610297575b3373ffffffffffffffffffffffffffffffffffffffff166108fc349081150290604051600060405180830381858888f193505050501580156100c9573d6000803e3d6000fd5b50005b6100d461030a565b005b610118600480360360208110156100ec57600080fd5b81019080803573ffffffffffffffffffffffffffffffffffffffff1690602001909291905050506104b6565b005b34801561012657600080fd5b506101696004803603602081101561013d57600080fd5b81019080803573ffffffffffffffffffffffffffffffffffffffff16906020019092919050505061079a565b604051808381526020018281526020019250505060405180910390f35b6101de6004803603606081101561019c57600080fd5b81019080803573ffffffffffffffffffffffffffffffffffffffff169060200190929190803590602001909291908035151590602001909291905050506107be565b604051808215151515815260200191505060405180910390f35b34801561020457600080fd5b506102516004803603604081101561021b57600080fd5b81019080803573ffffffffffffffffffffffffffffffffffffffff16906020019092919080359060200190929190505050610830565b005b6102956004803603602081101561026957600080fd5b81019080803573ffffffffffffffffffffffffffffffffffffffff1690602001909291905050506108bc565b005b3480156102a357600080fd5b506102e6600480360360208110156102ba57600080fd5b81019080803573ffffffffffffffffffffffffffffffffffffffff16906020019092919050505061094f565b60405180848152602001838152602001828152602001935050505060405180910390f35b60003411151561031957600080fd5b6001600260003373ffffffffffffffffffffffffffffffffffffffff1673ffffffffffffffffffffffffffffffffffffffff1681526020019081526020016000206000016000828254019250508190555034600260003373ffffffffffffffffffffffffffffffffffffffff1673ffffffffffffffffffffffffffffffffffffffff1681526020019081526020016000206001018190555034600160003373ffffffffffffffffffffffffffffffffffffffff1673ffffffffffffffffffffffffffffffffffffffff168152602001908152602001600020600082825401925050819055506000809054906101000a900473ffffffffffffffffffffffffffffffffffffffff1673ffffffffffffffffffffffffffffffffffffffff166108fc349081150290604051600060405180830381858888f19350505050158015610465573d6000803e3d6000fd5b503373ffffffffffffffffffffffffffffffffffffffff167f8c7266189e70b5cd087ce48a7584fc21aa294c0757e6acaacf897ea450641b90346040518082815260200191505060405180910390a2565b6000809054906101000a900473ffffffffffffffffffffffffffffffffffffffff1673ffffffffffffffffffffffffffffffffffffffff163373ffffffffffffffffffffffffffffffffffffffff1614151561051157600080fd5b6000600160008373ffffffffffffffffffffffffffffffffffffffff1673ffffffffffffffffffffffffffffffffffffffff1681526020019081526020016000205411151561055f57600080fd5b6000600160008060009054906101000a900473ffffffffffffffffffffffffffffffffffffffff1673ffffffffffffffffffffffffffffffffffffffff1673ffffffffffffffffffffffffffffffffffffffff168152602001908152602001600020541115156105ce57600080fd5b6000600260008373ffffffffffffffffffffffffffffffffffffffff1673ffffffffffffffffffffffffffffffffffffffff1681526020019081526020016000206001015490508173ffffffffffffffffffffffffffffffffffffffff166108fc829081150290604051600060405180830381858888f1935050505015801561065b573d6000803e3d6000fd5b50600160008373ffffffffffffffffffffffffffffffffffffffff1673ffffffffffffffffffffffffffffffffffffffff16815260200190815260200160002054600160008060009054906101000a900473ffffffffffffffffffffffffffffffffffffffff1673ffffffffffffffffffffffffffffffffffffffff1673ffffffffffffffffffffffffffffffffffffffff168152602001908152602001600020600082825403925050819055506000600260008473ffffffffffffffffffffffffffffffffffffffff1673ffffffffffffffffffffffffffffffffffffffff168152602001908152602001600020600101819055506000600160008473ffffffffffffffffffffffffffffffffffffffff1673ffffffffffffffffffffffffffffffffffffffff168152602001908152602001600020819055505050565b60026020528060005260406000206000915090508060000154908060010154905082565b6000600115158215151415610824578373ffffffffffffffffffffffffffffffffffffffff167ff8724aba647d256391b6accd98c06186473815a314d266ce15ca054ec16bcc09846040518082815260200191505060405180910390a260019050610829565b600090505b9392505050565b60003390508073ffffffffffffffffffffffffffffffffffffffff167f31c1abba69c05c24c082227087622de504a4cf4cb0be3e96e8da923314a8e7418484604051808373ffffffffffffffffffffffffffffffffffffffff1673ffffffffffffffffffffffffffffffffffffffff1681526020018281526020019250505060405180910390a2505050565b8073ffffffffffffffffffffffffffffffffffffffff166108fc349081150290604051600060405180830381858888f19350505050158015610902573d6000803e3d6000fd5b5061094c81600160003373ffffffffffffffffffffffffffffffffffffffff1673ffffffffffffffffffffffffffffffffffffffff16815260200190815260200160002054610a3b565b50565b6000806000600160008573ffffffffffffffffffffffffffffffffffffffff1673ffffffffffffffffffffffffffffffffffffffff168152602001908152602001600020546000809054906101000a900473ffffffffffffffffffffffffffffffffffffffff1673ffffffffffffffffffffffffffffffffffffffff1631600160008060009054906101000a900473ffffffffffffffffffffffffffffffffffffffff1673ffffffffffffffffffffffffffffffffffffffff1673ffffffffffffffffffffffffffffffffffffffff168152602001908152602001600020549250925092509193909250565b80600160003373ffffffffffffffffffffffffffffffffffffffff1673ffffffffffffffffffffffffffffffffffffffff1681526020019081526020016000205410151515610a8957600080fd5b600160008373ffffffffffffffffffffffffffffffffffffffff1673ffffffffffffffffffffffffffffffffffffffff1681526020019081526020016000205481600160008573ffffffffffffffffffffffffffffffffffffffff1673ffffffffffffffffffffffffffffffffffffffff168152602001908152602001600020540110151515610b1857600080fd5b80600160003373ffffffffffffffffffffffffffffffffffffffff1673ffffffffffffffffffffffffffffffffffffffff1681526020019081526020016000206000828254039250508190555080600160008473ffffffffffffffffffffffffffffffffffffffff1673ffffffffffffffffffffffffffffffffffffffff168152602001908152602001600020600082825401925050819055507f3990db2d31862302a685e8086b5755072a6e2b5b780af1ee81ece35ee3cd3345338383604051808473ffffffffffffffffffffffffffffffffffffffff1673ffffffffffffffffffffffffffffffffffffffff1681526020018373ffffffffffffffffffffffffffffffffffffffff1673ffffffffffffffffffffffffffffffffffffffff168152602001828152602001935050505060405180910390a1505056fea165627a7a7230582042119c5070aee21eac54590eb3c2e8e14fad70334981504cdfcfcfdafaf48e610029",
  "source": "\n\npragma solidity  ^0.5.0 ;\n\ncontract Airlines {\n\n    address payable owner; //owner act as escrow with a wallet\n    //address payable wallet;\n    mapping(address => uint256) balanceOf;\n\n\n     modifier onlyOwner(){\n        require(msg.sender == owner);\n        _;\n    }\n\n    event paid(address indexed buyer, uint256 amount);\n    event available(address indexed airline,uint256 seatNumber);\n    event requestChange(\n        address indexed airline,\n        address changeTo,\n        uint256 seatNumber\n        );\n    event Sent(address from, address to, uint amount);\n\n     struct AirlinesDetails {\n         uint256 _id;\n         uint256 _balance;\n\n     }\n     mapping(address => AirlinesDetails) public airlinesInfo;\n\n     function() external payable{\n        msg.sender.transfer(msg.value);\n    }\n//constructor here\n    constructor (uint256 initialSupply) public{\n        owner = msg.sender; //contract owner and escrow\n        balanceOf[owner] = initialSupply; //token supply\n    }\n\n    function _transfer(address _to, uint256 _value) internal {\n        require(balanceOf[msg.sender] >= _value);\n        require(balanceOf[_to] + _value >= balanceOf[_to]);\n        balanceOf[msg.sender] -= _value;\n        balanceOf[_to] += _value;\n        emit Sent(msg.sender, _to, _value);\n    }\n\n\n\n\n   //1. Register\n   function register() public payable{\n       require(msg.value > 0);\n       //register Airline\n        airlinesInfo[msg.sender]._id += 1;\n        airlinesInfo[msg.sender]._balance = msg.value;\n    // register Airline and the owner will hold the money\n        balanceOf[msg.sender] += msg.value; //add amount token to buyer balance\n        //send ether to owner wallet\n        owner.transfer(msg.value);\n        emit paid(msg.sender,msg.value);\n\n   }\n\n// //2. Request\n     function request (address toAirline, uint256 seat) public{\n         address fromAirline = msg.sender;\n         //hashOfDetails can be the seat number\n         emit requestChange(fromAirline,toAirline, seat);\n\n     }\n\n //3. Response\n     function response(address fromAirline,uint256 seat, bool done)\n     public\n     payable\n     returns(bool success){\n       // done is the confirmation from off-chain that the seat is available or not\n        if(done == true){\n           emit available(fromAirline,seat);\n           return true;\n        }\n        else{\n           return false;\n        }\n\n     }\n\n// //4. SettlePayment\n     function payToAirline(address payable toAirline) public payable {\n         //call transfer where _to is toAirline and pay from msg.sender\n         toAirline.transfer(msg.value);\n         _transfer(toAirline,balanceOf[msg.sender]);\n\n     }\n// //5. Unregister\n    function unregister(address payable Airline) public payable onlyOwner(){\n      // take to money from airline by taking out their token balance and revert\n      //and return the msg.value to that address\n            require(balanceOf[Airline] > 0);\n            require(balanceOf[owner] > 0);\n            uint refund = airlinesInfo[Airline]._balance;\n            Airline.transfer(refund);\n            balanceOf[owner] -= balanceOf[Airline];\n            airlinesInfo[Airline]._balance = 0;\n            balanceOf[Airline] = 0;\n\n    }\n\n\n//6. BalanceDetails (public - more for debugging purposes)\n\n    function BalanceDetails(address Airline)\n    public\n    view\n    returns(uint256 airlineBalance,\n            uint256 escrowBalance,\n            uint256 walletBalance){\n        return (balanceOf[Airline],owner.balance,balanceOf[owner]);\n    }\n\n\n}\n",
  "sourcePath": "/home/ubuntu/Airlines/ask-blockchain/contracts/Airlines.sol",
  "compiler": {
    "name": "solc",
    "version": "0.5.0+commit.1d4f565a.Emscripten.clang"
  },
  "schemaVersion": "3.0.1",
  "updatedAt": "2019-05-04T20:02:55.945Z",
  "devdoc": {
    "methods": {}
  },
  "userdoc": {
    "methods": {}
  }
}